{
  "contractName": "InkaPancakeSwapProvider",
  "abi": [
    {
      "inputs": [
        {
          "internalType": "address",
          "name": "_wbnb",
          "type": "address"
        },
        {
          "internalType": "address",
          "name": "_factory",
          "type": "address"
        }
      ],
      "stateMutability": "nonpayable",
      "type": "constructor"
    },
    {
      "anonymous": false,
      "inputs": [
        {
          "indexed": false,
          "internalType": "uint256",
          "name": "amountOut",
          "type": "uint256"
        },
        {
          "indexed": false,
          "internalType": "uint256",
          "name": "fee",
          "type": "uint256"
        }
      ],
      "name": "InkaSwapOperation",
      "type": "event"
    },
    {
      "anonymous": false,
      "inputs": [
        {
          "indexed": true,
          "internalType": "address",
          "name": "previousOwner",
          "type": "address"
        },
        {
          "indexed": true,
          "internalType": "address",
          "name": "newOwner",
          "type": "address"
        }
      ],
      "name": "OwnershipTransferred",
      "type": "event"
    },
    {
      "inputs": [],
      "name": "FEE_DENOMINATOR",
      "outputs": [
        {
          "internalType": "uint256",
          "name": "",
          "type": "uint256"
        }
      ],
      "stateMutability": "view",
      "type": "function"
    },
    {
      "inputs": [],
      "name": "WBNB",
      "outputs": [
        {
          "internalType": "address",
          "name": "",
          "type": "address"
        }
      ],
      "stateMutability": "view",
      "type": "function"
    },
    {
      "inputs": [],
      "name": "owner",
      "outputs": [
        {
          "internalType": "address",
          "name": "",
          "type": "address"
        }
      ],
      "stateMutability": "view",
      "type": "function"
    },
    {
      "inputs": [],
      "name": "pancakeFactory",
      "outputs": [
        {
          "internalType": "address",
          "name": "",
          "type": "address"
        }
      ],
      "stateMutability": "view",
      "type": "function"
    },
    {
      "inputs": [],
      "name": "providerFee",
      "outputs": [
        {
          "internalType": "uint256",
          "name": "",
          "type": "uint256"
        }
      ],
      "stateMutability": "view",
      "type": "function"
    },
    {
      "inputs": [],
      "name": "renounceOwnership",
      "outputs": [],
      "stateMutability": "nonpayable",
      "type": "function"
    },
    {
      "inputs": [
        {
          "internalType": "address",
          "name": "newOwner",
          "type": "address"
        }
      ],
      "name": "transferOwnership",
      "outputs": [],
      "stateMutability": "nonpayable",
      "type": "function"
    },
    {
      "stateMutability": "payable",
      "type": "receive"
    },
    {
      "inputs": [
        {
          "internalType": "uint256",
          "name": "amountIn",
          "type": "uint256"
        },
        {
          "internalType": "uint256",
          "name": "swapAmountOutMin",
          "type": "uint256"
        },
        {
          "internalType": "address[]",
          "name": "path",
          "type": "address[]"
        },
        {
          "internalType": "address",
          "name": "to",
          "type": "address"
        },
        {
          "internalType": "uint256",
          "name": "deadline",
          "type": "uint256"
        }
      ],
      "name": "swapExactTokensForTokensSupportingFeeOnTransferTokens",
      "outputs": [],
      "stateMutability": "nonpayable",
      "type": "function"
    },
    {
      "inputs": [
        {
          "internalType": "uint256",
          "name": "swapAmountOutMin",
          "type": "uint256"
        },
        {
          "internalType": "address[]",
          "name": "path",
          "type": "address[]"
        },
        {
          "internalType": "address",
          "name": "to",
          "type": "address"
        },
        {
          "internalType": "uint256",
          "name": "deadline",
          "type": "uint256"
        }
      ],
      "name": "swapExactBNBForTokensSupportingFeeOnTransferTokens",
      "outputs": [],
      "stateMutability": "payable",
      "type": "function"
    },
    {
      "inputs": [
        {
          "internalType": "uint256",
          "name": "amountIn",
          "type": "uint256"
        },
        {
          "internalType": "uint256",
          "name": "swapAmountOutMin",
          "type": "uint256"
        },
        {
          "internalType": "address[]",
          "name": "path",
          "type": "address[]"
        },
        {
          "internalType": "address",
          "name": "to",
          "type": "address"
        },
        {
          "internalType": "uint256",
          "name": "deadline",
          "type": "uint256"
        }
      ],
      "name": "swapExactTokensForBNBSupportingFeeOnTransferTokens",
      "outputs": [],
      "stateMutability": "nonpayable",
      "type": "function"
    },
    {
      "inputs": [
        {
          "internalType": "address",
          "name": "token",
          "type": "address"
        }
      ],
      "name": "withdraw",
      "outputs": [],
      "stateMutability": "nonpayable",
      "type": "function"
    },
    {
      "inputs": [
        {
          "internalType": "uint256",
          "name": "_fee",
          "type": "uint256"
        }
      ],
      "name": "setProviderFee",
      "outputs": [],
      "stateMutability": "nonpayable",
      "type": "function"
    },
    {
      "inputs": [
        {
          "internalType": "address",
          "name": "_factory",
          "type": "address"
        }
      ],
      "name": "setPancakeFactory",
      "outputs": [],
      "stateMutability": "nonpayable",
      "type": "function"
    },
    {
      "inputs": [
        {
          "internalType": "address",
          "name": "_wbnb",
          "type": "address"
        }
      ],
      "name": "setWBNB",
      "outputs": [],
      "stateMutability": "nonpayable",
      "type": "function"
    }
  ],
  "bytecode": "0x60806040526301c9c3806003553480156200001957600080fd5b506040516200352f3803806200352f833981810160405260408110156200003f57600080fd5b81019080805190602001909291908051906020019092919050505060006200006c620002a460201b60201c565b9050806000806101000a81548173ffffffffffffffffffffffffffffffffffffffff021916908373ffffffffffffffffffffffffffffffffffffffff1602179055508073ffffffffffffffffffffffffffffffffffffffff16600073ffffffffffffffffffffffffffffffffffffffff167f8be0079c531659141344cd1fd0a4f28419497f9722a3daafe3b4186f6b6457e060405160405180910390a350600073ffffffffffffffffffffffffffffffffffffffff168273ffffffffffffffffffffffffffffffffffffffff16141562000192576040517f08c379a000000000000000000000000000000000000000000000000000000000815260040180806020018281038252602a81526020018062003505602a913960400191505060405180910390fd5b600073ffffffffffffffffffffffffffffffffffffffff168173ffffffffffffffffffffffffffffffffffffffff1614156200021a576040517f08c379a000000000000000000000000000000000000000000000000000000000815260040180806020018281038252602d815260200180620034d8602d913960400191505060405180910390fd5b81600160006101000a81548173ffffffffffffffffffffffffffffffffffffffff021916908373ffffffffffffffffffffffffffffffffffffffff16021790555080600260006101000a81548173ffffffffffffffffffffffffffffffffffffffff021916908373ffffffffffffffffffffffffffffffffffffffff1602179055505050620002ac565b600033905090565b61321c80620002bc6000396000f3fe6080604052600436106100e15760003560e01c8063a8b13ef31161007f578063d46d2f8311610059578063d46d2f8314610450578063d73792a914610514578063e0f1c9c51461053f578063f2fde38b14610580576100e8565b8063a8b13ef314610383578063c6e983d9146103d4578063cab27a64146103ff576100e8565b8063715018a6116100bb578063715018a6146102af5780638da5cb5b146102c65780638dd9500214610307578063a7593fb714610348576100e8565b806350e27df3146100ed57806351cff8d91461019a5780635c11d795146101eb576100e8565b366100e857005b600080fd5b6101986004803603608081101561010357600080fd5b81019080803590602001909291908035906020019064010000000081111561012a57600080fd5b82018360208201111561013c57600080fd5b8035906020019184602083028401116401000000008311171561015e57600080fd5b9091929391929390803573ffffffffffffffffffffffffffffffffffffffff169060200190929190803590602001909291905050506105d1565b005b3480156101a657600080fd5b506101e9600480360360208110156101bd57600080fd5b81019080803573ffffffffffffffffffffffffffffffffffffffff169060200190929190505050610723565b005b3480156101f757600080fd5b506102ad600480360360a081101561020e57600080fd5b8101908080359060200190929190803590602001909291908035906020019064010000000081111561023f57600080fd5b82018360208201111561025157600080fd5b8035906020019184602083028401116401000000008311171561027357600080fd5b9091929391929390803573ffffffffffffffffffffffffffffffffffffffff16906020019092919080359060200190929190505050610984565b005b3480156102bb57600080fd5b506102c4610ad6565b005b3480156102d257600080fd5b506102db610c5c565b604051808273ffffffffffffffffffffffffffffffffffffffff16815260200191505060405180910390f35b34801561031357600080fd5b5061031c610c85565b604051808273ffffffffffffffffffffffffffffffffffffffff16815260200191505060405180910390f35b34801561035457600080fd5b506103816004803603602081101561036b57600080fd5b8101908080359060200190929190505050610cab565b005b34801561038f57600080fd5b506103d2600480360360208110156103a657600080fd5b81019080803573ffffffffffffffffffffffffffffffffffffffff169060200190929190505050610d7d565b005b3480156103e057600080fd5b506103e9610e89565b6040518082815260200191505060405180910390f35b34801561040b57600080fd5b5061044e6004803603602081101561042257600080fd5b81019080803573ffffffffffffffffffffffffffffffffffffffff169060200190929190505050610e8f565b005b34801561045c57600080fd5b50610512600480360360a081101561047357600080fd5b810190808035906020019092919080359060200190929190803590602001906401000000008111156104a457600080fd5b8201836020820111156104b657600080fd5b803590602001918460208302840111640100000000831117156104d857600080fd5b9091929391929390803573ffffffffffffffffffffffffffffffffffffffff16906020019092919080359060200190929190505050610f9b565b005b34801561052057600080fd5b5061052961114b565b6040518082815260200191505060405180910390f35b34801561054b57600080fd5b50610554611154565b604051808273ffffffffffffffffffffffffffffffffffffffff16815260200191505060405180910390f35b34801561058c57600080fd5b506105cf600480360360208110156105a357600080fd5b81019080803573ffffffffffffffffffffffffffffffffffffffff16906020019092919050505061117a565b005b8042811015610648576040517f08c379a00000000000000000000000000000000000000000000000000000000081526004018080602001828103825260208152602001807f496e6b6150616e63616b655377617050726f76696465723a204558504952454481525060200191505060405180910390fd5b60006106578787876000611385565b905060006106876402540be4006106796003548561190790919063ffffffff16565b61199c90919063ffffffff16565b90507f84e43bf9ecccdafe2f6b63816addc086de62847bfc2aa8e17186e7cb589eb6798282604051808381526020018281526020019250505060405180910390a160006106dd82846119b090919063ffffffff16565b9050610718888860018b8b9050038181106106f457fe5b9050602002013573ffffffffffffffffffffffffffffffffffffffff168783611a33565b505050505050505050565b600160009054906101000a900473ffffffffffffffffffffffffffffffffffffffff1673ffffffffffffffffffffffffffffffffffffffff168173ffffffffffffffffffffffffffffffffffffffff1614156108cd5760008173ffffffffffffffffffffffffffffffffffffffff166370a08231306040518263ffffffff1660e01b8152600401808273ffffffffffffffffffffffffffffffffffffffff16815260200191505060206040518083038186803b1580156107e257600080fd5b505afa1580156107f6573d6000803e3d6000fd5b505050506040513d602081101561080c57600080fd5b8101908080519060200190929190505050905060008111156108b657600160009054906101000a900473ffffffffffffffffffffffffffffffffffffffff1673ffffffffffffffffffffffffffffffffffffffff16632e1a7d4d826040518263ffffffff1660e01b815260040180828152602001915050600060405180830381600087803b15801561089d57600080fd5b505af11580156108b1573d6000803e3d6000fd5b505050505b6108c76108c1610c5c565b47611c16565b50610981565b610980816108d9610c5c565b8373ffffffffffffffffffffffffffffffffffffffff166370a08231306040518263ffffffff1660e01b8152600401808273ffffffffffffffffffffffffffffffffffffffff16815260200191505060206040518083038186803b15801561094057600080fd5b505afa158015610954573d6000803e3d6000fd5b505050506040513d602081101561096a57600080fd5b8101908080519060200190929190505050611a33565b5b50565b80428110156109fb576040517f08c379a00000000000000000000000000000000000000000000000000000000081526004018080602001828103825260208152602001807f496e6b6150616e63616b655377617050726f76696465723a204558504952454481525060200191505060405180910390fd5b6000610a0988888888611d75565b90506000610a396402540be400610a2b6003548561190790919063ffffffff16565b61199c90919063ffffffff16565b90507f84e43bf9ecccdafe2f6b63816addc086de62847bfc2aa8e17186e7cb589eb6798282604051808381526020018281526020019250505060405180910390a16000610a8f82846119b090919063ffffffff16565b9050610aca888860018b8b905003818110610aa657fe5b9050602002013573ffffffffffffffffffffffffffffffffffffffff168783611a33565b50505050505050505050565b610ade612095565b73ffffffffffffffffffffffffffffffffffffffff1660008054906101000a900473ffffffffffffffffffffffffffffffffffffffff1673ffffffffffffffffffffffffffffffffffffffff1614610b9e576040517f08c379a00000000000000000000000000000000000000000000000000000000081526004018080602001828103825260208152602001807f4f776e61626c653a2063616c6c6572206973206e6f7420746865206f776e657281525060200191505060405180910390fd5b600073ffffffffffffffffffffffffffffffffffffffff1660008054906101000a900473ffffffffffffffffffffffffffffffffffffffff1673ffffffffffffffffffffffffffffffffffffffff167f8be0079c531659141344cd1fd0a4f28419497f9722a3daafe3b4186f6b6457e060405160405180910390a360008060006101000a81548173ffffffffffffffffffffffffffffffffffffffff021916908373ffffffffffffffffffffffffffffffffffffffff160217905550565b60008060009054906101000a900473ffffffffffffffffffffffffffffffffffffffff16905090565b600160009054906101000a900473ffffffffffffffffffffffffffffffffffffffff1681565b610cb3612095565b73ffffffffffffffffffffffffffffffffffffffff1660008054906101000a900473ffffffffffffffffffffffffffffffffffffffff1673ffffffffffffffffffffffffffffffffffffffff1614610d73576040517f08c379a00000000000000000000000000000000000000000000000000000000081526004018080602001828103825260208152602001807f4f776e61626c653a2063616c6c6572206973206e6f7420746865206f776e657281525060200191505060405180910390fd5b8060038190555050565b610d85612095565b73ffffffffffffffffffffffffffffffffffffffff1660008054906101000a900473ffffffffffffffffffffffffffffffffffffffff1673ffffffffffffffffffffffffffffffffffffffff1614610e45576040517f08c379a00000000000000000000000000000000000000000000000000000000081526004018080602001828103825260208152602001807f4f776e61626c653a2063616c6c6572206973206e6f7420746865206f776e657281525060200191505060405180910390fd5b80600260006101000a81548173ffffffffffffffffffffffffffffffffffffffff021916908373ffffffffffffffffffffffffffffffffffffffff16021790555050565b60035481565b610e97612095565b73ffffffffffffffffffffffffffffffffffffffff1660008054906101000a900473ffffffffffffffffffffffffffffffffffffffff1673ffffffffffffffffffffffffffffffffffffffff1614610f57576040517f08c379a00000000000000000000000000000000000000000000000000000000081526004018080602001828103825260208152602001807f4f776e61626c653a2063616c6c6572206973206e6f7420746865206f776e657281525060200191505060405180910390fd5b80600160006101000a81548173ffffffffffffffffffffffffffffffffffffffff021916908373ffffffffffffffffffffffffffffffffffffffff16021790555050565b8042811015611012576040517f08c379a00000000000000000000000000000000000000000000000000000000081526004018080602001828103825260208152602001807f496e6b6150616e63616b655377617050726f76696465723a204558504952454481525060200191505060405180910390fd5b60006110208888888861209d565b905060006110506402540be4006110426003548561190790919063ffffffff16565b61199c90919063ffffffff16565b90507f84e43bf9ecccdafe2f6b63816addc086de62847bfc2aa8e17186e7cb589eb6798282604051808381526020018281526020019250505060405180910390a1600160009054906101000a900473ffffffffffffffffffffffffffffffffffffffff1673ffffffffffffffffffffffffffffffffffffffff16632e1a7d4d836040518263ffffffff1660e01b815260040180828152602001915050600060405180830381600087803b15801561110657600080fd5b505af115801561111a573d6000803e3d6000fd5b50505050600061113382846119b090919063ffffffff16565b905061113f8682611c16565b50505050505050505050565b6402540be40081565b600260009054906101000a900473ffffffffffffffffffffffffffffffffffffffff1681565b611182612095565b73ffffffffffffffffffffffffffffffffffffffff1660008054906101000a900473ffffffffffffffffffffffffffffffffffffffff1673ffffffffffffffffffffffffffffffffffffffff1614611242576040517f08c379a00000000000000000000000000000000000000000000000000000000081526004018080602001828103825260208152602001807f4f776e61626c653a2063616c6c6572206973206e6f7420746865206f776e657281525060200191505060405180910390fd5b600073ffffffffffffffffffffffffffffffffffffffff168173ffffffffffffffffffffffffffffffffffffffff1614156112c8576040517f08c379a00000000000000000000000000000000000000000000000000000000081526004018080602001828103825260268152602001806130806026913960400191505060405180910390fd5b8073ffffffffffffffffffffffffffffffffffffffff1660008054906101000a900473ffffffffffffffffffffffffffffffffffffffff1673ffffffffffffffffffffffffffffffffffffffff167f8be0079c531659141344cd1fd0a4f28419497f9722a3daafe3b4186f6b6457e060405160405180910390a3806000806101000a81548173ffffffffffffffffffffffffffffffffffffffff021916908373ffffffffffffffffffffffffffffffffffffffff16021790555050565b6000600160009054906101000a900473ffffffffffffffffffffffffffffffffffffffff1673ffffffffffffffffffffffffffffffffffffffff16848460008181106113cd57fe5b9050602002013573ffffffffffffffffffffffffffffffffffffffff1673ffffffffffffffffffffffffffffffffffffffff1614611456576040517f08c379a00000000000000000000000000000000000000000000000000000000081526004018080602001828103825260258152602001806130fb6025913960400191505060405180910390fd5b600061146b83346119b090919063ffffffff16565b9050600081116114c6576040517f08c379a00000000000000000000000000000000000000000000000000000000081526004018080602001828103825260328152602001806130c96032913960400191505060405180910390fd5b600160009054906101000a900473ffffffffffffffffffffffffffffffffffffffff1673ffffffffffffffffffffffffffffffffffffffff1663d0e30db0826040518263ffffffff1660e01b81526004016000604051808303818588803b15801561153057600080fd5b505af1158015611544573d6000803e3d6000fd5b5050505050600160009054906101000a900473ffffffffffffffffffffffffffffffffffffffff1673ffffffffffffffffffffffffffffffffffffffff1663a9059cbb611606600260009054906101000a900473ffffffffffffffffffffffffffffffffffffffff16888860008181106115ba57fe5b9050602002013573ffffffffffffffffffffffffffffffffffffffff16898960018181106115e457fe5b9050602002013573ffffffffffffffffffffffffffffffffffffffff16612479565b836040518363ffffffff1660e01b8152600401808373ffffffffffffffffffffffffffffffffffffffff16815260200182815260200192505050602060405180830381600087803b15801561165a57600080fd5b505af115801561166e573d6000803e3d6000fd5b505050506040513d602081101561168457600080fd5b810190808051906020019092919050505061169b57fe5b60008585600188889050038181106116af57fe5b9050602002013573ffffffffffffffffffffffffffffffffffffffff1673ffffffffffffffffffffffffffffffffffffffff166370a08231306040518263ffffffff1660e01b8152600401808273ffffffffffffffffffffffffffffffffffffffff16815260200191505060206040518083038186803b15801561173257600080fd5b505afa158015611746573d6000803e3d6000fd5b505050506040513d602081101561175c57600080fd5b810190808051906020019092919050505090506117ba868680806020026020016040519081016040528093929190818152602001838360200280828437600081840152601f19601f8201169050808301925050505050505030612591565b600061189e82888860018b8b9050038181106117d257fe5b9050602002013573ffffffffffffffffffffffffffffffffffffffff1673ffffffffffffffffffffffffffffffffffffffff166370a08231306040518263ffffffff1660e01b8152600401808273ffffffffffffffffffffffffffffffffffffffff16815260200191505060206040518083038186803b15801561185557600080fd5b505afa158015611869573d6000803e3d6000fd5b505050506040513d602081101561187f57600080fd5b81019080805190602001909291905050506119b090919063ffffffff16565b9050878110156118f9576040517f08c379a00000000000000000000000000000000000000000000000000000000081526004018080602001828103825260338152602001806131476033913960400191505060405180910390fd5b809350505050949350505050565b600080821480611924575082828385029250828161192157fe5b04145b611996576040517f08c379a00000000000000000000000000000000000000000000000000000000081526004018080602001828103825260148152602001807f64732d6d6174682d6d756c2d6f766572666c6f7700000000000000000000000081525060200191505060405180910390fd5b92915050565b60008183816119a757fe5b04905092915050565b6000828284039150811115611a2d576040517f08c379a00000000000000000000000000000000000000000000000000000000081526004018080602001828103825260158152602001807f64732d6d6174682d7375622d756e646572666c6f77000000000000000000000081525060200191505060405180910390fd5b92915050565b600060608473ffffffffffffffffffffffffffffffffffffffff1663a9059cbb8585604051602401808373ffffffffffffffffffffffffffffffffffffffff168152602001828152602001925050506040516020818303038152906040529060e01b6020820180517bffffffffffffffffffffffffffffffffffffffffffffffffffffffff83818316178352505050506040518082805190602001908083835b60208310611af65780518252602082019150602081019050602083039250611ad3565b6001836020036101000a0380198251168184511680821785525050505050509050019150506000604051808303816000865af19150503d8060008114611b58576040519150601f19603f3d011682016040523d82523d6000602084013e611b5d565b606091505b5091509150818015611b9d5750600081511480611b9c5750808060200190516020811015611b8a57600080fd5b81019080805190602001909291905050505b5b611c0f576040517f08c379a000000000000000000000000000000000000000000000000000000000815260040180806020018281038252601f8152602001807f5472616e7366657248656c7065723a205452414e534645525f4641494c45440081525060200191505060405180910390fd5b5050505050565b60008273ffffffffffffffffffffffffffffffffffffffff1682600067ffffffffffffffff81118015611c4857600080fd5b506040519080825280601f01601f191660200182016040528015611c7b5781602001600182028036833780820191505090505b506040518082805190602001908083835b60208310611caf5780518252602082019150602081019050602083039250611c8c565b6001836020036101000a03801982511681845116808217855250505050505090500191505060006040518083038185875af1925050503d8060008114611d11576040519150601f19603f3d011682016040523d82523d6000602084013e611d16565b606091505b5050905080611d70576040517f08c379a000000000000000000000000000000000000000000000000000000000815260040180806020018281038252602381526020018061317a6023913960400191505060405180910390fd5b505050565b6000611e2a83836000818110611d8757fe5b9050602002013573ffffffffffffffffffffffffffffffffffffffff1633611e24600260009054906101000a900473ffffffffffffffffffffffffffffffffffffffff1687876000818110611dd857fe5b9050602002013573ffffffffffffffffffffffffffffffffffffffff1688886001818110611e0257fe5b9050602002013573ffffffffffffffffffffffffffffffffffffffff16612479565b88612b47565b6000838360018686905003818110611e3e57fe5b9050602002013573ffffffffffffffffffffffffffffffffffffffff1673ffffffffffffffffffffffffffffffffffffffff166370a08231306040518263ffffffff1660e01b8152600401808273ffffffffffffffffffffffffffffffffffffffff16815260200191505060206040518083038186803b158015611ec157600080fd5b505afa158015611ed5573d6000803e3d6000fd5b505050506040513d6020811015611eeb57600080fd5b81019080805190602001909291905050509050611f49848480806020026020016040519081016040528093929190818152602001838360200280828437600081840152601f19601f8201169050808301925050505050505030612591565b600061202d82868660018989905003818110611f6157fe5b9050602002013573ffffffffffffffffffffffffffffffffffffffff1673ffffffffffffffffffffffffffffffffffffffff166370a08231306040518263ffffffff1660e01b8152600401808273ffffffffffffffffffffffffffffffffffffffff16815260200191505060206040518083038186803b158015611fe457600080fd5b505afa158015611ff8573d6000803e3d6000fd5b505050506040513d602081101561200e57600080fd5b81019080805190602001909291905050506119b090919063ffffffff16565b905085811015612088576040517f08c379a00000000000000000000000000000000000000000000000000000000081526004018080602001828103825260338152602001806131476033913960400191505060405180910390fd5b8092505050949350505050565b600033905090565b6000600160009054906101000a900473ffffffffffffffffffffffffffffffffffffffff1673ffffffffffffffffffffffffffffffffffffffff168383600186869050038181106120ea57fe5b9050602002013573ffffffffffffffffffffffffffffffffffffffff1673ffffffffffffffffffffffffffffffffffffffff1614612173576040517f08c379a00000000000000000000000000000000000000000000000000000000081526004018080602001828103825260258152602001806130fb6025913960400191505060405180910390fd5b6122268383600081811061218357fe5b9050602002013573ffffffffffffffffffffffffffffffffffffffff1633612220600260009054906101000a900473ffffffffffffffffffffffffffffffffffffffff16878760008181106121d457fe5b9050602002013573ffffffffffffffffffffffffffffffffffffffff16888860018181106121fe57fe5b9050602002013573ffffffffffffffffffffffffffffffffffffffff16612479565b88612b47565b6000600160009054906101000a900473ffffffffffffffffffffffffffffffffffffffff1673ffffffffffffffffffffffffffffffffffffffff166370a08231306040518263ffffffff1660e01b8152600401808273ffffffffffffffffffffffffffffffffffffffff16815260200191505060206040518083038186803b1580156122b157600080fd5b505afa1580156122c5573d6000803e3d6000fd5b505050506040513d60208110156122db57600080fd5b81019080805190602001909291905050509050612339848480806020026020016040519081016040528093929190818152602001838360200280828437600081840152601f19601f8201169050808301925050505050505030612591565b600061241182600160009054906101000a900473ffffffffffffffffffffffffffffffffffffffff1673ffffffffffffffffffffffffffffffffffffffff166370a08231306040518263ffffffff1660e01b8152600401808273ffffffffffffffffffffffffffffffffffffffff16815260200191505060206040518083038186803b1580156123c857600080fd5b505afa1580156123dc573d6000803e3d6000fd5b505050506040513d60208110156123f257600080fd5b81019080805190602001909291905050506119b090919063ffffffff16565b90508581101561246c576040517f08c379a00000000000000000000000000000000000000000000000000000000081526004018080602001828103825260338152602001806131476033913960400191505060405180910390fd5b8092505050949350505050565b60008060006124888585612d2c565b91509150858282604051602001808373ffffffffffffffffffffffffffffffffffffffff1660601b81526014018273ffffffffffffffffffffffffffffffffffffffff1660601b8152601401925050506040516020818303038152906040528051906020012060405160200180807fff000000000000000000000000000000000000000000000000000000000000008152506001018373ffffffffffffffffffffffffffffffffffffffff1660601b8152601401828152602001807efb7f630766e6a796048ea87d01acd3068e8ff67d078148a3fa3f4a84f69bd5815250602001925050506040516020818303038152906040528051906020012060001c925050509392505050565b60005b6001835103811015612b42576000808483815181106125af57fe5b60200260200101518560018501815181106125c657fe5b60200260200101519150915060006125de8383612d2c565b509050600073ffffffffffffffffffffffffffffffffffffffff16600260009054906101000a900473ffffffffffffffffffffffffffffffffffffffff1673ffffffffffffffffffffffffffffffffffffffff1663e6a4390585856040518363ffffffff1660e01b8152600401808373ffffffffffffffffffffffffffffffffffffffff1681526020018273ffffffffffffffffffffffffffffffffffffffff1681526020019250505060206040518083038186803b1580156126a057600080fd5b505afa1580156126b4573d6000803e3d6000fd5b505050506040513d60208110156126ca57600080fd5b810190808051906020019092919050505073ffffffffffffffffffffffffffffffffffffffff161415612748576040517f08c379a00000000000000000000000000000000000000000000000000000000081526004018080602001828103825260278152602001806131206027913960400191505060405180910390fd5b6000612777600260009054906101000a900473ffffffffffffffffffffffffffffffffffffffff168585612479565b90506000806000808473ffffffffffffffffffffffffffffffffffffffff16630902f1ac6040518163ffffffff1660e01b815260040160606040518083038186803b1580156127c557600080fd5b505afa1580156127d9573d6000803e3d6000fd5b505050506040513d60608110156127ef57600080fd5b81019080805190602001909291908051906020019092919080519060200190929190505050506dffffffffffffffffffffffffffff1691506dffffffffffffffffffffffffffff1691506000808773ffffffffffffffffffffffffffffffffffffffff168a73ffffffffffffffffffffffffffffffffffffffff1614612876578284612879565b83835b91509150612931828b73ffffffffffffffffffffffffffffffffffffffff166370a082318a6040518263ffffffff1660e01b8152600401808273ffffffffffffffffffffffffffffffffffffffff16815260200191505060206040518083038186803b1580156128e857600080fd5b505afa1580156128fc573d6000803e3d6000fd5b505050506040513d602081101561291257600080fd5b81019080805190602001909291905050506119b090919063ffffffff16565b955061293e868383612ea3565b9450505050506000808573ffffffffffffffffffffffffffffffffffffffff168873ffffffffffffffffffffffffffffffffffffffff161461298257826000612986565b6000835b91509150600060028c51038a1061299d578a6129e1565b6129e0600260009054906101000a900473ffffffffffffffffffffffffffffffffffffffff16898e60028e01815181106129d357fe5b6020026020010151612479565b5b90508573ffffffffffffffffffffffffffffffffffffffff1663022c0d9f848484600067ffffffffffffffff81118015612a1a57600080fd5b506040519080825280601f01601f191660200182016040528015612a4d5781602001600182028036833780820191505090505b506040518563ffffffff1660e01b8152600401808581526020018481526020018373ffffffffffffffffffffffffffffffffffffffff16815260200180602001828103825283818151815260200191508051906020019080838360005b83811015612ac5578082015181840152602081019050612aaa565b50505050905090810190601f168015612af25780820380516001836020036101000a031916815260200191505b5095505050505050600060405180830381600087803b158015612b1457600080fd5b505af1158015612b28573d6000803e3d6000fd5b505050505050505050505050508080600101915050612594565b505050565b600060608573ffffffffffffffffffffffffffffffffffffffff166323b872dd868686604051602401808473ffffffffffffffffffffffffffffffffffffffff1681526020018373ffffffffffffffffffffffffffffffffffffffff16815260200182815260200193505050506040516020818303038152906040529060e01b6020820180517bffffffffffffffffffffffffffffffffffffffffffffffffffffffff83818316178352505050506040518082805190602001908083835b60208310612c285780518252602082019150602081019050602083039250612c05565b6001836020036101000a0380198251168184511680821785525050505050509050019150506000604051808303816000865af19150503d8060008114612c8a576040519150601f19603f3d011682016040523d82523d6000602084013e612c8f565b606091505b5091509150818015612ccf5750600081511480612cce5750808060200190516020811015612cbc57600080fd5b81019080805190602001909291905050505b5b612d24576040517f08c379a00000000000000000000000000000000000000000000000000000000081526004018080602001828103825260248152602001806131c36024913960400191505060405180910390fd5b505050505050565b6000808273ffffffffffffffffffffffffffffffffffffffff168473ffffffffffffffffffffffffffffffffffffffff161415612db4576040517f08c379a00000000000000000000000000000000000000000000000000000000081526004018080602001828103825260238152602001806130a66023913960400191505060405180910390fd5b8273ffffffffffffffffffffffffffffffffffffffff168473ffffffffffffffffffffffffffffffffffffffff1610612dee578284612df1565b83835b8092508193505050600073ffffffffffffffffffffffffffffffffffffffff168273ffffffffffffffffffffffffffffffffffffffff161415612e9c576040517f08c379a000000000000000000000000000000000000000000000000000000000815260040180806020018281038252601c8152602001807f50616e63616b654c6962726172793a205a45524f5f414444524553530000000081525060200191505060405180910390fd5b9250929050565b6000808411612efd576040517f08c379a00000000000000000000000000000000000000000000000000000000081526004018080602001828103825260298152602001806130576029913960400191505060405180910390fd5b600083118015612f0d5750600082115b612f62576040517f08c379a000000000000000000000000000000000000000000000000000000000815260040180806020018281038252602681526020018061319d6026913960400191505060405180910390fd5b6000612f796126f78661190790919063ffffffff16565b90506000612f90848361190790919063ffffffff16565b90506000612fbb83612fad6127108961190790919063ffffffff16565b612fd390919063ffffffff16565b9050808281612fc657fe5b0493505050509392505050565b6000828284019150811015613050576040517f08c379a00000000000000000000000000000000000000000000000000000000081526004018080602001828103825260148152602001807f64732d6d6174682d6164642d6f766572666c6f7700000000000000000000000081525060200191505060405180910390fd5b9291505056fe50616e63616b654c6962726172793a20494e53554646494349454e545f494e5055545f414d4f554e544f776e61626c653a206e6577206f776e657220697320746865207a65726f206164647265737350616e63616b654c6962726172793a204944454e544943414c5f414444524553534553496e6b6150616e63616b655377617050726f76696465723a20494e53554646494349454e545f494e5055545f414d4f554e54496e6b6150616e63616b655377617050726f76696465723a20494e56414c49445f50415448496e6b6150616e63616b655377617050726f76696465723a20504149525f4e4f545f4558495354496e6b6150616e63616b655377617050726f76696465723a20494e53554646494349454e545f4f55545055545f414d4f554e545472616e7366657248656c7065723a204554485f5452414e534645525f4641494c454450616e63616b654c6962726172793a20494e53554646494349454e545f4c49515549444954595472616e7366657248656c7065723a205452414e534645525f46524f4d5f4641494c4544a264697066735822122047c086030b2ee2ce3cfde16b06056a55e4e1ef266dd628f606ebe8cf7a39495e64736f6c634300060c0033496e6b6150616e63616b655377617050726f76696465723a205a45524f5f464143544f52595f41444452455353496e6b6150616e63616b655377617050726f76696465723a205a45524f5f57424e425f41444452455353",
  "immutableReferences": {},
  "source": "// SPDX-License-Identifier: GPL-3.0\n\npragma solidity =0.6.12;\n\nimport \"./utils/Ownable.sol\";\nimport \"./bsc/interfaces/IPancakeFactory.sol\";\nimport \"./bsc/libraries/PancakeLibrary.sol\";\nimport './libraries/TransferHelper.sol';\nimport \"./bsc/interfaces/IWBNB.sol\";\nimport \"./bsc/interfaces/IBEP20.sol\";\nimport \"./libraries/SafeMath.sol\";\nimport \"./libraries/Convert.sol\";\n\ncontract InkaPancakeSwapProvider is Ownable {\n    using SafeMath for uint256;\n    using Convert for bytes;\n\n    event InkaSwapOperation (\n        uint256 amountOut,\n        uint256 fee\n    );\n\n    address public WBNB;\n    address public pancakeFactory;\n\n    uint256 public providerFee = 3 * 10 ** 7; \n    uint256 public constant FEE_DENOMINATOR = 10 ** 10;\n\n    modifier ensure(uint deadline) {\n        require(deadline >= block.timestamp, 'InkaPancakeSwapProvider: EXPIRED');\n        _;\n    }\n\n    constructor (\n        address _wbnb,\n        address _factory\n    ) public {\n        require(_wbnb != address(0), \"InkaPancakeSwapProvider: ZERO_WBNB_ADDRESS\");\n        require(_factory != address(0), \"InkaPancakeSwapProvider: ZERO_FACTORY_ADDRESS\");\n\n        WBNB = _wbnb;\n        pancakeFactory = _factory;\n    }\n\n    function swapExactTokensForTokensSupportingFeeOnTransferTokens(\n        uint amountIn,\n        uint swapAmountOutMin,\n        address[] calldata path,\n        address to,\n        uint deadline\n    ) external virtual ensure(deadline) {\n        uint amountOut = _swapExactTokensForTokensSupportingFeeOnTransferTokens(amountIn, swapAmountOutMin, path);\n        uint feeAmount = amountOut.mul(providerFee).div(FEE_DENOMINATOR);\n\n        emit InkaSwapOperation(amountOut, feeAmount);\n\n        uint adjustedAmountOut = amountOut.sub(feeAmount);\n        TransferHelper.safeTransfer(path[path.length - 1], to, adjustedAmountOut);\n    }\n\n    function _swapExactTokensForTokensSupportingFeeOnTransferTokens(\n        uint amountIn,\n        uint amountOutMin,\n        address[] calldata path\n    ) internal virtual returns (uint) {\n        TransferHelper.safeTransferFrom(\n            path[0], msg.sender, PancakeLibrary.pairFor(pancakeFactory, path[0], path[1]), amountIn\n        );\n        uint balanceBefore = IBEP20(path[path.length - 1]).balanceOf(address(this));\n        _swapSupportingFeeOnTransferTokens(path, address(this));\n        uint amountOut = IBEP20(path[path.length - 1]).balanceOf(address(this)).sub(balanceBefore);\n        require(amountOut >= amountOutMin, 'InkaPancakeSwapProvider: INSUFFICIENT_OUTPUT_AMOUNT');\n        return amountOut;\n    }\n\n    function swapExactBNBForTokensSupportingFeeOnTransferTokens(\n        uint swapAmountOutMin,\n        address[] calldata path,\n        address to,\n        uint deadline\n    ) external virtual payable ensure(deadline) {\n        uint amountOut = _swapExactBNBForTokensSupportingFeeOnTransferTokens(swapAmountOutMin, path, 0);\n        uint feeAmount = amountOut.mul(providerFee).div(FEE_DENOMINATOR);\n\n        emit InkaSwapOperation(amountOut, feeAmount);\n\n        uint adjustedAmountOut = amountOut.sub(feeAmount);\n        TransferHelper.safeTransfer(path[path.length - 1], to, adjustedAmountOut);\n    }\n\n    function _swapExactBNBForTokensSupportingFeeOnTransferTokens(\n        uint swapAmountOutMin,\n        address[] calldata path,\n        uint fee\n    ) internal virtual returns (uint) {\n        require(path[0] == WBNB, 'InkaPancakeSwapProvider: INVALID_PATH');\n        uint amountIn = msg.value.sub(fee);\n        require(amountIn > 0, 'InkaPancakeSwapProvider: INSUFFICIENT_INPUT_AMOUNT');\n        IWBNB(WBNB).deposit{value: amountIn}();\n        assert(IWBNB(WBNB).transfer(PancakeLibrary.pairFor(pancakeFactory, path[0], path[1]), amountIn));\n        uint balanceBefore = IBEP20(path[path.length - 1]).balanceOf(address(this));\n        _swapSupportingFeeOnTransferTokens(path, address(this));\n        uint amountOut = IBEP20(path[path.length - 1]).balanceOf(address(this)).sub(balanceBefore);\n        require(amountOut >= swapAmountOutMin, 'InkaPancakeSwapProvider: INSUFFICIENT_OUTPUT_AMOUNT');\n        return amountOut;\n    }\n\n    function swapExactTokensForBNBSupportingFeeOnTransferTokens(\n        uint amountIn,\n        uint swapAmountOutMin,\n        address[] calldata path,\n        address to,\n        uint deadline\n    ) external virtual ensure(deadline) {\n        uint amountOut = _swapExactTokensForBNBSupportingFeeOnTransferTokens(amountIn, swapAmountOutMin, path);\n        uint feeAmount = amountOut.mul(providerFee).div(FEE_DENOMINATOR);\n\n        emit InkaSwapOperation(amountOut, feeAmount);\n\n        IWBNB(WBNB).withdraw(amountOut);\n        uint adjustedAmountOut = amountOut.sub(feeAmount);\n        TransferHelper.safeTransferETH(to, adjustedAmountOut);\n    }\n\n    function _swapExactTokensForBNBSupportingFeeOnTransferTokens(\n        uint amountIn,\n        uint swapAmountOutMin,\n        address[] calldata path\n    ) internal virtual returns (uint) {\n        require(path[path.length - 1] == WBNB, 'InkaPancakeSwapProvider: INVALID_PATH');\n        TransferHelper.safeTransferFrom(\n            path[0], msg.sender, PancakeLibrary.pairFor(pancakeFactory, path[0], path[1]), amountIn\n        );\n        uint balanceBefore = IBEP20(WBNB).balanceOf(address(this));\n        _swapSupportingFeeOnTransferTokens(path, address(this));\n        uint amountOut = IBEP20(WBNB).balanceOf(address(this)).sub(balanceBefore);\n        require(amountOut >= swapAmountOutMin, 'InkaPancakeSwapProvider: INSUFFICIENT_OUTPUT_AMOUNT');\n        return amountOut;\n    }\n\n    // **** SWAP (supporting fee-on-transfer tokens) ****\n    // requires the initial amount to have already been sent to the first pair\n    function _swapSupportingFeeOnTransferTokens(address[] memory path, address _to) internal virtual {\n        for (uint i; i < path.length - 1; i++) {\n            (address input, address output) = (path[i], path[i + 1]);\n            (address token0,) = PancakeLibrary.sortTokens(input, output);\n            require(IPancakeFactory(pancakeFactory).getPair(input, output) != address(0), \"InkaPancakeSwapProvider: PAIR_NOT_EXIST\");\n            IPancakePair pair = IPancakePair(PancakeLibrary.pairFor(pancakeFactory, input, output));\n            uint amountInput;\n            uint amountOutput;\n            { // scope to avoid stack too deep errors\n            (uint reserve0, uint reserve1,) = pair.getReserves();\n            (uint reserveInput, uint reserveOutput) = input == token0 ? (reserve0, reserve1) : (reserve1, reserve0);\n            amountInput = IBEP20(input).balanceOf(address(pair)).sub(reserveInput);\n            amountOutput = PancakeLibrary.getAmountOut(amountInput, reserveInput, reserveOutput);\n            }\n            (uint amount0Out, uint amount1Out) = input == token0 ? (uint(0), amountOutput) : (amountOutput, uint(0));\n            address to = i < path.length - 2 ? PancakeLibrary.pairFor(pancakeFactory, output, path[i + 2]) : _to;\n            pair.swap(amount0Out, amount1Out, to, new bytes(0));\n        }\n    }\n\n    receive() external payable { }\n\n    function withdraw(address token) external {\n        if (token == WBNB) {\n            uint256 wethBalance = IBEP20(token).balanceOf(address(this));\n            if (wethBalance > 0) {\n                IWBNB(WBNB).withdraw(wethBalance);\n            }\n            TransferHelper.safeTransferETH(owner(), address(this).balance);\n        } else {\n            TransferHelper.safeTransfer(token, owner(), IBEP20(token).balanceOf(address(this)));\n        }\n    }\n\n    function setProviderFee(uint _fee) external onlyOwner {\n        providerFee = _fee;\n    }\n\n    function setPancakeFactory(address _factory) external onlyOwner {\n        pancakeFactory = _factory;\n    }\n\n    function setWBNB(address _wbnb) external onlyOwner {\n        WBNB = _wbnb;\n    }\n}\n",
  "sourcePath": "/home/aibek/inka-wallet/inka-pancake-swap-provider/contracts/InkaPancakeSwapProvider.sol",
  "compiler": {
    "name": "solc",
    "version": "0.6.12+commit.27d51765.Emscripten.clang"
  },
  "schemaVersion": "3.3.4",
  "updatedAt": "2021-06-28T10:02:37.712Z",
  "devdoc": {
    "kind": "dev",
    "methods": {
      "owner()": {
        "details": "Returns the address of the current owner."
      },
      "renounceOwnership()": {
        "details": "Leaves the contract without owner. It will not be possible to call `onlyOwner` functions anymore. Can only be called by the current owner. NOTE: Renouncing ownership will leave the contract without an owner, thereby removing any functionality that is only available to the owner."
      },
      "transferOwnership(address)": {
        "details": "Transfers ownership of the contract to a new account (`newOwner`). Can only be called by the current owner."
      }
    },
    "version": 1
  },
  "userdoc": {
    "kind": "user",
    "methods": {},
    "version": 1
  }
}